:100000000C9435010C9466010C9466010C94660105
:100010000C9466010C9466010C9466010C946601C4
:100020000C9466010C9466010C9466010C946601B4
:100030000C9466010C9466010C9466010C946601A4
:100040000C9466010C9466010C9466010C94660194
:100050000C9466010C9466010C9466010C94AA043D
:100060000C9466010C941E050C94F4040C94660127
:100070000C9466010C9466010C9466010C94660164
:100080000C9466010C9466010C9466010C94660154
:100090000C9466010C9466010C9466010C94660144
:1000A0000C9466010C9466010C9466010C94660134
:1000B0000C9466010C9466010C9466010C94660124
:1000C0000C9466010C9466010C9466010C94660114
:1000D0000C9466010C9466010C9466010C94660104
:1000E0000C9466010C946C020C94EC010C94DE01EF
:1000F0000C94CC010C94D4010C94D0010C94990272
:100100000C94BC010C9498010C94AD010C94020366
:100110000C94B1010C94C2010C94BC020C94CA0260
:100120000C94B9010C94E2010C944E060C94DA0183
:100130000C94B5010C944F030C949D010C94A802EF
:100140000C94E8010C94C601000022002500280050
:100150002B002E00310034000201000005010801CF
:100160000B0100002100240027002A002D00300090
:10017000330001010000040107010A010000200012
:100180002300260029002C002F003200000100006F
:10019000030106010901050505050705080808080A
:1001A000020202020A0A080804040404010101010F
:1001B000010101010303030303030303040707070A
:1001C0000C0C0C0C0C0C0C0C0202020206060606AF
:1001D000060606060B0B0B0B0B0B0B0B010210207C
:1001E000200808102040102040800201020108046D
:1001F0000201010204081020408080402010080401
:100200000201800402018040201008040201080459
:10021000020101020408102040800102040810209D
:10022000408000000A0B02090C0D0E0807030401B0
:1002300000000000000000000000000000000000BE
:10024000000000000000000000000000000012118B
:10025000100000000000000000000000000000008E
:1002600000000000000000004E0611241FBECFEF6A
:10027000D1E2DEBFCDBF00E00CBF12E0A0E0B2E0F3
:10028000EEE4FDE000E00BBF02C007900D92AE333C
:10029000B107D9F722E0AEE3B2E001C01D92A63F5C
:1002A000B207E1F711E0C5E3D1E000E006C0219715
:1002B0000109802FFE010E949D06C433D10780E012
:1002C0000807A9F70E9454050C94A5060C94000099
:1002D000282F30E0F901EE5DFD4F9491F901E452D1
:1002E000FE4F44912A563E4FF9012491222309F4EE
:1002F00077C0992311F191509231F8F4E92FF0E091
:100300008827EA57FE4F8F4F0C949D06B501B9011F
:100310009801AD01B1019D01BC01C201C601CC0132
:10032000D001D401DA01DE019D01E201E801EC0116
:10033000809180008F7780938000E22FF0E0EE0FB5
:10034000FF1FE458FE4FA591B491EC91E42381E0A6
:1003500090E009F047C080E00895809180008F7D93
:10036000EACF80918000877FE6CF84B58F7784BD08
:10037000E4CF84B58F7DFBCF8091B0008F778093E1
:10038000B000DBCF8091B0008F7DF9CF80919000DD
:100390008F7780939000D1CF809190008F7DF9CF9F
:1003A00080919000877FF5CF8091A0008F77809318
:1003B000A000C3CF8091A0008F7DF9CF8091A000D5
:1003C000877FF5CF809120018F7780932001B5CF73
:1003D000809120018F7DF9CF80912001877FF5CF1B
:1003E00080E090E00895CF93DF9390E0FC01E45229
:1003F000FE4F24918A569E4FFC0184918823C9F0B8
:1004000090E0880F991FFC01EE59FE4FA591B49121
:10041000FC01E85BFE4FC591D49161110DC09FB7FF
:10042000F8948C91209582238C93888128232883AB
:100430009FBFDF91CF910895623051F49FB7F89438
:100440003C91822F809583238C93E8812E2BEFCFD4
:100450008FB7F894EC912E2B2C938FBFEACF3FB738
:10046000F8948091550290915602A0915702B09154
:10047000580226B5A89B05C02F3F19F00196A11D73
:10048000B11D3FBFBA2FA92F982F8827BC01CD01DE
:10049000620F711D811D911D42E0660F771F881F3D
:1004A000991F4A95D1F70895CF92DF92EF92FF926C
:1004B0000E942F026B017C010E942F026C197D09A2
:1004C0008E099F09683E734081059105A8F3FF904E
:1004D000EF90DF90CF900895AF92BF92CF92DF92CE
:1004E000EF92FF920F931F93CF93DF936C017B01E9
:1004F0008B01040F151FEB015E01AE18BF08C0177A
:10050000D10759F06991D601ED91FC910190F081EC
:10051000E02DC6011995892B79F7C501DF91CF919F
:100520001F910F91FF90EF90DF90CF90BF90AF9011
:100530000895FC01538D448D252F30E0842F90E0E9
:10054000821B930B541710F0CF96089501970895CE
:10055000FC01918D828D981761F0A28DAE0FBF2F97
:10056000B11D5D968C91928D9F5F9F73928F90E0ED
:1005700008958FEF9FEF0895FC01918D828D98175C
:1005800031F0828DE80FF11D858D90E008958FEF99
:100590009FEF0895FC01918D228D892F90E0805C62
:1005A0009F4F821B91098F739927089589E592E0E7
:1005B0000E94CA0221E0892B09F420E0822F0895CD
:1005C000FC01A48DA80FB92FB11DA35ABF4F2C91C8
:1005D000848D90E001968F739927848FA689B789BF
:1005E0002C93A089B1898C91837080648C93938DB6
:1005F000848D981306C00288F389E02D80818F7D59
:1006000080830895EF92FF920F931F93CF93DF9310
:10061000EC0181E0888F9B8D8C8D98131AC0E8893E
:10062000F989808185FF15C09FB7F894EE89FF890D
:100630006083E889F98980818370806480839FBFAB
:1006400081E090E0DF91CF911F910F91FF90EF90AB
:100650000895F62E0B8D10E00F5F1F4F0F731127BB
:10066000E02E8C8D8E110CC00FB607FCFACFE889F6
:10067000F989808185FFF5CFCE010E94E002F1CF9C
:10068000EB8DEC0FFD2FF11DE35AFF4FF0829FB76A
:10069000F8940B8FEA89FB8980818062CFCFCF935A
:1006A000DF93EC01888D8823B9F0AA89BB89E8899A
:1006B000F9898C9185FD03C0808186FD0DC00FB640
:1006C00007FCF7CF8C9185FFF2CF808185FFEDCFBE
:1006D000CE010E94E002E9CFDF91CF91089580E042
:1006E00090E0892B29F00E94D60281110E9400001F
:1006F00080E090E0892B49F080E090E0892B29F0A0
:100700000E94000081110E94000080E090E0892B8F
:1007100049F080E090E0892B29F00E9400008111CF
:100720000E94000080E090E0892B49F080E090E09A
:10073000892B29F00E94000081110C94000008957B
:10074000FC0101900020E9F73197AF01481B590BDC
:10075000BC0189E592E00C946C020F931F93CF9338
:10076000DF93EB018A010E946801892BB9F52FB74D
:10077000F8948091510290915202A0915302B0914D
:1007800054022FBFF8014081518162817381841B23
:10079000950BA60BB70BC397A105B10528F182E114
:1007A00092E00E94A00382E292E00E94A00381E016
:1007B0009FB7F894409151025091520260915302B8
:1007C000709154029FBFF801408351836283738309
:1007D000882321F08881882349F01882DF91CF9106
:1007E0001F910F910C94540280E0E2CF81E0888346
:1007F000F5CF4F925F926F927F92AF92BF92CF925E
:10080000DF92EF92FF920F931F93CF93DF93CDB7B9
:10081000DEB7A1970FB6F894DEBF0FBECDBFF82E9E
:100820003B016A0159010E945402802F0E94680115
:100830008C01F501808191818017910709F454C0E2
:100840000130110509F050C0F301808181114CC0C5
:100850008E2D0E946801F60120813181019709F4F3
:100860005BC02F5F3F4F3183208385E292E0F11020
:1008700002C081E392E00E94A003F601C080D18013
:100880000D2C000CEE08FF08F7FE49C06DE289E56B
:1008900092E00E94020322273327A9012C193D0967
:1008A0004E095F0919A2CE0181967C019AE0492E7A
:1008B000512C612C712CCA01B901A30192010E9433
:1008C0007B06605DF70162937F01211531054105CB
:1008D000510589F7E114F10419F0C7010E94A00342
:1008E00082E292E00E94A003F50111830083A196A9
:1008F0000FB6F894DEBF0FBECDBFDF91CF911F9131
:100900000F91FF90EF90DF90CF90BF90AF907F90CE
:100910006F905F904F90089521503109A4CFA701A7
:10092000960119A2CE0181967C018AE0482E512CB5
:10093000612C712CCA01B901A30192010E947B06AE
:10094000605DF70162937F01211531054105510575
:1009500089F7C0CF1F920F920FB60F9211242F93D9
:100960003F938F939F93AF93BF9380915102909148
:100970005202A0915302B09154023091500223E0F0
:10098000230F2D3758F50196A11DB11D209350025C
:100990008093510290935202A0935302B093540259
:1009A0008091550290915602A0915702B091580241
:1009B0000196A11DB11D8093550290935602A093FC
:1009C0005702B0935802BF91AF919F918F913F9181
:1009D0002F910F900FBE0F901F90189526E8230FB0
:1009E0000296A11DB11DD2CF1F920F920FB60F928A
:1009F00011240BB60F922F933F934F935F936F93F6
:100A00007F938F939F93AF93BF93EF93FF9389E56A
:100A100092E00E94E002FF91EF91BF91AF919F9110
:100A20008F917F916F915F914F913F912F910F9097
:100A30000BBE0F900FBE0F901F9018951F920F9234
:100A40000FB60F9211240BB60F922F938F939F9393
:100A5000EF93FF93E0916902F0916A028081E09147
:100A60006F02F091700282FD1DC090818091720230
:100A70008F5F8F7320917302821741F0E0917202B1
:100A8000F0E0E75AFD4F958F80937202FF91EF914E
:100A90009F918F912F910F900BBE0F900FBE0F90D3
:100AA0001F9018958081F2CF789484B5826084BDC0
:100AB00084B5816084BD85B5826085BD85B5816062
:100AC00085BD80916E00816080936E0010928100E0
:100AD000809181008260809381008091810081609B
:100AE000809381008091800081608093800080915C
:100AF000B10084608093B1008091B00081608093E8
:100B0000B00080919100826080939100809191006B
:100B1000816080939100809190008160809390002B
:100B20008091A10082608093A1008091A1008160EA
:100B30008093A1008091A00081608093A0008091AB
:100B40002101826080932101809121018160809345
:100B500021018091200181608093200180917A00A1
:100B6000846080937A0080917A00826080937A001A
:100B700080917A00816080937A0080917A00806809
:100B800080937A001092C10062E085E00E94F30138
:100B900060E086E00E94F30160E087E00E94F301DC
:100BA00062E082E00E94F30160E083E00E94F301D2
:100BB00060E084E00E94F30187E00E946801909366
:100BC00043028093420284E00E94680190933F02B6
:100BD00080933E02E0916902F0916A0282E0808394
:100BE000E0916502F09166021082E0916702F09157
:100BF00068028FEC808310927102E0916D02F09197
:100C00006E0286E08083E0916B02F0916C0280813D
:100C100080618083E0916B02F0916C02808188603A
:100C20008083E0916B02F0916C0280818068808308
:100C3000E0916B02F0916C0280818F7D80834BE4A8
:100C400052E06FE472E085E090E00E94AD0346E47C
:100C500052E06AE472E082E090E00E94AD0387E037
:100C6000E82EF12C06E010E022E432E044E452E009
:100C70006FE472E081E00E94F90394E0E92EF12C28
:100C800003E010E02EE332E040E452E06AE472E078
:100C900080E00E94F9030E946F03D1CFE9E5F2E002
:100CA0001382128288EE93E0A0E0B0E08483958303
:100CB000A683B78384E092E09183808385EC90E003
:100CC0009587848784EC90E09787868780EC90E016
:100CD000918B808B81EC90E0938B828B82EC90E007
:100CE000958B848B86EC90E0978B868B118E128E81
:100CF000138E148E0895A1E21A2EAA1BBB1BFD01B0
:100D00000DC0AA1FBB1FEE1FFF1FA217B307E407EA
:100D1000F50720F0A21BB30BE40BF50B661F771F42
:100D2000881F991F1A9469F7609570958095909522
:100D30009B01AC01BD01CF010895EE0FFF1F881F7D
:0E0D40008BBF0790F691E02D1994F894FFCF29
:100D4E000000000002036C0299024F03CA02A802BF
:100D5E00BC02427574746F6E207072657373656435
:100D6E0021000D0A0078206D6F76656D656E743A00
:0E0D7E000079206D6F76656D656E743A000029
:00000001FF
