:100000000C9449010C947A010C947A010C947A01B5
:100010000C947A010C947A010C947A010C947A0174
:100020000C947A010C947A010C947A010C947A0164
:100030000C947A010C947A010C947A010C947A0154
:100040000C947A010C9466090C947A010C947A0150
:100050000C947A010C947A010C947A010C94320875
:100060000C947A010C94A6080C947C080C947A01E8
:100070000C947A010C947A010C947A010C947A0114
:100080000C9438090C947A010C947A010C947A013E
:100090000C947A010C947A010C947A010C947A01F4
:1000A0000C947A010C947A010C940A090C947A014C
:1000B0000C947A010C947A010C947A010C94DC086B
:1000C0000C947A010C947A010C947A010C947A01C4
:1000D0000C947A010C947A010C947A010C947A01B4
:1000E0000C947A010C9443050C9419040C940D02A1
:1000F0000C94CC030C941E020C9415020C94220256
:100100000C9457050C9419050C9494030C9411024B
:100110000C9433050C9443020C9436020C9407059E
:100120000C9436030C9431050C9448020C94300264
:100130000C9494090C943E020C9463030C943A02C0
:100140000C9472030C94F9040C9439050C94510529
:100150000C9444020C942C020C94EF040C9486032F
:100160000C9409020C9403020C9418020C942802BB
:1001700000002100240027002A002D003000330059
:1001800001010000040107010A010000220025000E
:1001900028002B002E003100340002010000050170
:1001A00008010B01000020002300260029002C007C
:1001B0002F003200000100000301060109010505BE
:1001C0000505070508080808020202020A0A0808CD
:1001D00004040404010101010101010103030303FB
:1001E00003030303040707070C0C0C0C0C0C0C0C8A
:1001F0000202020206060606060606060B0B0B0B9B
:100200000B0B0B0B010210202008081020401020BF
:1002100040800201020108040201010204081020CA
:1002200040808040201008040201800402018040C8
:100230002010080402010804020101020408102031
:100240004080010204081020408000000A0B0209CF
:100250000C0D0E0807030401000000000000000060
:10026000000000000000000000000000000000008E
:10027000000000000000121110000000000000004B
:10028000000000000000000000000000000000006E
:10029000940911241FBECFEFD1E2DEBFCDBF00E035
:1002A0000CBF12E0A0E0B2E0E8E3FBE100E00BBF2E
:1002B00002C007900D92A239B107D9F724E0A2E954
:1002C000B2E001C01D92A831B207E1F711E0C9E424
:1002D000D1E000E006C021970109802FFE010E94B5
:1002E0007E0DC834D10780E00807A9F70E948B0A69
:1002F0000C949A0D0C9400008F929F92AF92BF9233
:10030000FF920F931F93CF93DF93F090E1032FE2BF
:100310002F1508F450C02091E30308E512E0021BFA
:10032000110927FD1395000F111F000F111F2091B8
:10033000E203C8E8D0E0C21BD10927FDD395CC0F5A
:10034000DD1FCC0FDD1F4E010D2E000CAA08BB08CF
:10035000DC0197FF02C0B0E0A0E09801012E000C84
:10036000440B550B281939094A095B090E94250DD0
:1003700024EB30E040E050E00E94FB0C820E931E24
:10038000A41EB51E8C169D062CF0E8018016910661
:100390000CF4E4012297CC0FDD1F2FB7F8948F2DBA
:1003A00090E0FC01EE0FFF1FE80FF91FE05BFC4F30
:1003B000D283C1832FBFDF91CF911F910F91FF9007
:1003C000BF90AF909F908F9008958150823108F038
:1003D0005AC0E82FF0E08827EF50FE4F8F4F0C9463
:1003E0007E0D11021502030209020D0243021802DA
:1003F0001E02220228022C02300236023A02430276
:100400003E0244024802809180008F7780938000F2
:100410000895809180008F7DF9CF80918000877F43
:10042000F5CF84B58F7784BD089584B58F7DFBCFDC
:100430008091B0008F778093B00008958091B000D4
:100440008F7DF9CF809190008F77809390000895F1
:10045000809190008F7DF9CF80919000877FF5CFBC
:100460008091A0008F778093A00008958091A000D4
:100470008F7DF9CF8091A000877FF5CF80912001FB
:100480008F77809320010895809120018F7DF9CF8F
:1004900080912001877FF5CFCF93DF93282F30E025
:1004A000F901E65BFD4F8491F901EC5FFD4FD491BA
:1004B000F901E254FE4FC491CC23A1F081110E94B6
:1004C000E501EC2FF0E0EE0FFF1FEC55FE4FA5917C
:1004D000B491EC91ED2381E090E009F480E0DF91AC
:1004E000CF91089580E090E0FACF1F93CF93DF93F0
:1004F000282F30E0F901E65BFD4F8491F901EC5FB4
:10050000FD4FD491F901E254FE4FC491CC23A9F0E0
:10051000162F81110E94E501EC2FF0E0EE0FFF1F76
:10052000E657FE4FA591B4918FB7F894EC91111155
:1005300008C0D095DE23DC938FBFDF91CF911F9150
:100540000895DE2BF8CFCF93DF9390E0FC01EC5FB2
:10055000FD4F249182549E4FFC0184918823C9F061
:1005600090E0880F991FFC01E059FE4FA591B491CE
:10057000FC01E657FE4FC591D49161110DC09FB7A4
:10058000F8948C91209582238C938881282328834A
:100590009FBFDF91CF910895623051F49FB7F894D7
:1005A0003C91822F809583238C93E8812E2BEFCF73
:1005B0008FB7F894EC912E2B2C938FBFEACF3FB7D7
:1005C000F8948091AF029091B002A091B102B091E5
:1005D000B20226B5A89B05C02F3F19F00196A11DB8
:1005E000B11D3FBFBA2FA92F982F8827BC01CD017D
:1005F000620F711D811D911D42E0660F771F881FDC
:10060000991F4A95D1F708958F929F92AF92BF920A
:10061000CF92DF92EF92FF924B015C010E94DF02CA
:100620006B017C010E94DF026C197D098E099F0914
:10063000683E734081059105A8F321E0821A910874
:10064000A108B10888EEC80E83E0D81EE11CF11C99
:1006500081149104A104B10429F7FF90EF90DF9079
:10066000CF90BF90AF909F908F900895AF92BF9220
:10067000CF92DF92EF92FF920F931F93CF93DF936E
:100680006C017B018B01040F151FEB015E01AE189D
:10069000BF08C017D10759F06991D601ED91FC91BF
:1006A0000190F081E02DC6011995892B79F7C501DC
:1006B000DF91CF911F910F91FF90EF90DF90CF903E
:1006C000BF90AF900895FC01538D448D252F30E0ED
:1006D000842F90E0821B930B541710F0CF9608954F
:1006E00001970895FC01918D828D981761F0A28D7C
:1006F000AE0FBF2FB11D5D968C91928D9F5F9F7342
:10070000928F90E008958FEF9FEF0895FC01918DF7
:10071000828D981731F0828DE80FF11D858D90E064
:1007200008958FEF9FEF0895FC01918D228D892F01
:1007300090E0805C9F4F821B91098F7399270895E9
:1007400083EB92E00E94940321E0892B09F420E0DE
:10075000822F0895FC01A48DA80FB92FB11DA35AB3
:10076000BF4F2C91848D90E001968F739927848FD1
:10077000A689B7892C93A089B1898C9183708064F4
:100780008C93938D848D981306C00288F389E02D95
:1007900080818F7D80830895EF92FF920F931F9346
:1007A000CF93DF93EC0181E0888F9B8D8C8D981324
:1007B0001AC0E889F989808185FF15C09FB7F89430
:1007C000EE89FF896083E889F9898081837080647C
:1007D00080839FBF81E090E0DF91CF911F910F91C7
:1007E000FF90EF900895F62E0B8D10E00F5F1F4FD6
:1007F0000F731127E02E8C8D8E110CC00FB607FCE5
:10080000FACFE889F989808185FFF5CFCE010E9472
:10081000AA03F1CFEB8DEC0FFD2FF11DE35AFF4F33
:10082000F0829FB7F8940B8FEA89FB898081806200
:10083000CFCFCF93DF93EC01888D8823B9F0AA89BD
:10084000BB89E889F9898C9185FD03C0808186FD8B
:100850000DC00FB607FCF7CF8C9185FFF2CF8081DA
:1008600085FFEDCFCE010E94AA03E9CFDF91CF91A2
:10087000089580E090E0892B29F00E94A003811167
:100880000E94000080E090E0892B49F080E090E039
:10089000892B29F00E94000081110E94000080E055
:1008A00090E0892B49F080E090E0892B29F00E94AC
:1008B000000081110E94000080E090E0892B49F047
:1008C00080E090E0892B29F00E94000081110C94B7
:1008D000000008950F931F93CF93DF93EC018B01DA
:1008E00088859985029751F46130710509F43AC001
:1008F0006CF560E00115110509F435C0888599850E
:10090000049751F40130110509F455C00CF035C0BD
:100910000115110509F43EC088859985059709F0F0
:10092000C8C00A30110508F0C4C0F8018827E45691
:10093000FB4F8F4F0C947E0DEF04F904070519054A
:1009400031053305390543055105570562307105F9
:1009500091F060E00330110589F68C850E947502E4
:1009600060E005C061E08C850E94750261E08E85C3
:100970000E947502C3CF61E0F0CF0230110509F18A
:100980000330110509F0C8CF61E08C850E94750223
:1009900060E01CC061E08C850E94750260E08E857D
:1009A0000E94750261E088890E94750260E08A8970
:1009B0000E947502B1CF60E08C850E94750261E0F3
:1009C000EECF60E08C850E94750261E08E850E940A
:1009D000750260E088890E94750261E0E8CF60E0FE
:1009E0008C850E94750261E08E850E94750261E02F
:1009F00009C060E08C850E94750261E08E850E94CE
:100A0000750260E088890E94750260E00DC060E0B8
:100A10008C850E94750261E08E850E94750260E0FF
:100A200088890E94750261E08A890E94750261E0EE
:100A300011C060E08C850E94750261E08E850E9485
:100A4000750260E088890E94750261E08A890E94CF
:100A5000750260E08C89DF91CF911F910F910C940A
:100A6000750261E0E7CF61E08C850E94750260E06D
:100A7000E5CF61E08C850E94750260E08E850E9462
:100A8000750261E0DFCF61E08C850E94750260E055
:100A90008E850E94750261E088890E94750260E07F
:100AA000D5CF61E08C850E94750260E09DCF60E04B
:100AB000F9CFDF91CF911F910F9108954F925F92DF
:100AC0006F927F928F929F92AF92BF92CF92DF925E
:100AD000EF92FF920F931F93CF93DF93EC018B0163
:100AE00077FF04C000271127061B170B16161706E1
:100AF0000CF04AC081E090E09983888384E0E82E7E
:100B0000F12C9AE0C92ED12C0115110509F44EC023
:100B10000E94DF028E889F88A88CB98C2B013C0133
:100B2000481859086A087B088A809B80AC80BD8081
:100B3000481459046A047B0438F36E8B7F8B888FCA
:100B4000998F8A859B85288139812130310511F55E
:100B500001969B878A872E813F818217930711F424
:100B60001B861A86015011098A859B85288539853F
:100B7000B6012530310509F0B7010E946A0DBC01AC
:100B8000CE010E946A04C0CF672B09F4B7CF198247
:100B90001882B4CF892B21F48E819F819B878A870D
:100BA0008A859B8501979B878A87DCCFDF91CF91D0
:100BB0001F910F91FF90EF90DF90CF90BF90AF907B
:100BC0009F908F907F906F905F904F900895AF921D
:100BD000BF92CF92DF92EF92FF920F931F93CF932A
:100BE000DF936B017A01EC01CE56DD4F28813CE0AA
:100BF000389F8001399F100D1124A090E003B12C83
:100C000027FF1FC0FB011182108288818F5F8883BC
:100C100088819801280F311D87FD3A95F6012A1524
:100C20003B051CF488818C30C4F18081918104964D
:100C300080349C4908F473C0F60180819181049648
:100C400070C088819801280F311D87FD3A952A15BB
:100C50003B05DCF68881A801480F511D87FD5A9598
:100C6000FA01EE0FFF1FE40FF51FE05BFC4F8081E0
:100C700086FFCBCF8881F801E80FF11D87FDFA953B
:100C8000CF01EE0FFF1FE80FF91FE05BFC4F8081E3
:100C900060E08F730E947502B8CF808191812881B6
:100CA000A801420F511D27FD5A959A01FA01EE0F36
:100CB000FF1FE20FF31FE05BFC4F21813281820FA7
:100CC000931FF7019183808388819801280F311D3C
:100CD00087FD3A95F901EE0FFF1FE20FF31FE05B6E
:100CE000FC4F808186FF22C08881080F111D87FD7F
:100CF0001A95F801EE0FFF1FE00FF11FE05BFC4FAC
:100D0000808161E08F73DF91CF911F910F91FF90F0
:100D1000EF90DF90CF90BF90AF900C94750280E47D
:100D20009CE9F701918380838FEF8883DF91CF91D6
:100D30001F910F91FF90EF90DF90CF90BF90AF90F9
:100D40000895FC0101900020E9F73197AF01481B9D
:100D5000590BBC0183EB92E00C9436030F931F9365
:100D6000CF93DF93EB018A010E944C02892BB9F5E6
:100D70002FB7F8948091AB029091AC02A091AD0294
:100D8000B091AE022FBFF801408151816281738121
:100D9000841B950BA60BB70BC397A105B10548F1B2
:100DA00084E192E00E94A10684E292E00E94A10602
:100DB00081E09FB7F8944091AB025091AC026091F2
:100DC000AD027091AE029FBFF801408351836283F0
:100DD0007383882321F08881882369F0188265E075
:100DE00070E080E090E0DF91CF911F910F910C9423
:100DF000040380E0DECF81E08883F1CF8F929F9261
:100E0000AF92BF92CF92DF92EF92FF920F931F9318
:100E1000CF93DF93CDB7DEB7A1970FB6F894DEBFBF
:100E20000FBECDBF6C01990FEE08FF08F7FE47C05B
:100E30006DE283EB92E00E94CC038C0122273327E2
:100E4000A9012C193D094E095F0919A2CE0181960D
:100E50007C019AE0892E912CA12CB12CCA01B901F8
:100E6000A50194010E942D0D605DF70162937F0141
:100E7000211531054105510589F790E080E0309753
:100E800019F0CF010E94A106080F191F84E292E019
:100E90000E94A106800F911FA1960FB6F894DEBFA5
:100EA0000FBECDBFDF91CF911F910F91FF90EF90BB
:100EB000DF90CF90BF90AF909F908F900895A70143
:100EC000960119A28E010F5D1F4F8AE0C82ED12C0A
:100ED000E12CF12CCA01B901A70196010E942D0D48
:100EE000605DF80162938F012115310541055105BF
:100EF00089F7309729F0CF010E94A1068C01C6CF57
:100F000010E000E0C3CF8F929F92AF92BF92CF923A
:100F1000DF92EF920F931F93CF93DF93182F4B0124
:100F20006A01590161E070E080E090E00E940403F2
:100F3000802F0E944C02EC0180919702882309F4D3
:100F400044C0F4018081F501208131812C173D07D7
:100F500009F466C0C130D10509F062C0811174C0C6
:100F60008E2D0E944C02F601208131810197E1F122
:100F70002F5F3F4F31832083D0930102C093000243
:100F80001123E9F187E292E00E94A106809100021C
:100F90009091010218EC9C01129FC001139F900DCB
:100FA00011240E94FE068091000290910102189F78
:100FB000B001199F700D11248EEF93E00E945E0521
:100FC000F601808191810E94FE06F501D183C083E4
:100FD000DF91CF911F910F91EF90DF90CF90BF9055
:100FE000AF909F908F9008952150310931832083D5
:100FF0008FEF9FEF9093010280930002C1CF83E3B4
:1010000092E00E94A106809100029091010228ECDA
:10101000289FB001299F700D112484EE93E0CECF5C
:10102000811112C0112339F060E08BE20E94750239
:1010300061E089E206C061E083E30E94750260E03E
:1010400085E30E947502C1CF61E0112329F08BE294
:101050000E94750260E0EDCF85E30E94750260E0BA
:1010600083E3EFCF1F920F920FB60F9211242F93AD
:101070003F938F939F93AF93BF938091AB029091D7
:10108000AC02A091AD02B091AE023091AA0223E071
:10109000230F2D3758F50196A11DB11D2093AA02EB
:1010A0008093AB029093AC02A093AD02B093AE02DA
:1010B0008091AF029091B002A091B102B091B202C2
:1010C0000196A11DB11D8093AF029093B002A09331
:1010D000B102B093B202BF91AF919F918F913F91B6
:1010E0002F910F900FBE0F901F90189526E8230F99
:1010F0000296A11DB11DD2CF1F920F920FB60F9273
:1011000011240BB60F922F933F934F935F936F93DE
:101110007F938F939F93AF93BF93EF93FF9383EB53
:1011200092E00E94AA03FF91EF91BF91AF919F912E
:101130008F917F916F915F914F913F912F910F9080
:101140000BBE0F900FBE0F901F9018951F920F921D
:101150000FB60F9211240BB60F922F938F939F937C
:10116000EF93FF93E091C302F091C4028081E0917C
:10117000C902F091CA0282FD1DC090818091CC020B
:101180008F5F8F732091CD02821741F0E091CC02E6
:10119000F0E0ED54FD4F958F8093CC02FF91EF91DD
:1011A0009F918F912F910F900BBE0F900FBE0F90BC
:1011B0001F9018958081F2CF1F920F920FB60F9259
:1011C00011240BB60F922F933F934F935F936F931E
:1011D0007F938F939F93AF93BF93EF93FF9348E2D7
:1011E00051E064E271E090E080E00E94E705FF9149
:1011F000EF91BF91AF919F918F917F916F915F918F
:101200004F913F912F910F900BBE0F900FBE0F90FB
:101210001F9018951F920F920FB60F9211240BB6C4
:101220000F922F933F934F935F936F937F938F937F
:101230009F93AF93BF93EF93FF9348EA50E064EA24
:1012400070E083E090E00E94E705FF91EF91BF918D
:10125000AF919F918F917F916F915F914F913F914E
:101260002F910F900BBE0F900FBE0F901F901895EF
:101270001F920F920FB60F9211240BB60F922F935D
:101280003F934F935F936F937F938F939F93AF930E
:10129000BF93EF93FF9348E950E064E970E082E088
:1012A00090E00E94E705FF91EF91BF91AF919F9170
:1012B0008F917F916F915F914F913F912F910F90FF
:1012C0000BBE0F900FBE0F901F9018951F920F929C
:1012D0000FB60F9211240BB60F922F933F934F939B
:1012E0005F936F937F938F939F93AF93BF93EF938E
:1012F000FF9348E850E064E870E081E090E00E94ED
:10130000E705FF91EF91BF91AF919F918F917F91F1
:101310006F915F914F913F912F910F900BBE0F9066
:101320000FBE0F901F9018950F931F93CF93DF93CD
:101330001092B6021092B50288EE93E0A0E0B0E001
:101340008093B7029093B802A093B902B093BA0207
:1013500086E092E09093B4028093B30285EC90E033
:101360009093C0028093BF0284EC90E09093C202FD
:101370008093C10280EC90E09093C4028093C302FA
:1013800081EC90E09093C6028093C50282EC90E0DD
:101390009093C8028093C70286EC90E09093CA02B3
:1013A0008093C9021092CC021092CD021092CE020C
:1013B0001092CF0210920904109208041092FF03B9
:1013C0001092FE0310921404109215041092160449
:1013D0001092170404E318E010930504009304042A
:1013E0008FE190E090930B0480930A0481E290E0F7
:1013F00090930D0480930C0483E290E090930F048B
:1014000080930E0485E290E0909311048093100481
:1014100061E08FE10E94A30261E080910C040E94D0
:10142000A30261E080910E040E94A30261E080911A
:1014300010040E94A3021092130410921204C4E03C
:10144000D0E0D0930704C09306041092EF031092EB
:10145000EE031092E5031092E4031092FA03109247
:10146000FB031092FC031092FD031093EB03009317
:10147000EA038EE190E09093F1038093F00380E221
:1014800090E09093F3038093F20382E290E09093D4
:10149000F5038093F40384E290E09093F703809344
:1014A000F60361E08EE10E94A30261E08091F20305
:1014B0000E94A30261E08091F4030E94A30261E014
:1014C0008091F6030E94A3021092F9031092F80390
:1014D000D093ED03C093EC038091E0038033B8F424
:1014E00091E0980F9093E0038093E10390E0FC017A
:1014F000EE0FFF1FE80FF91FE05BFC4F88EB9BE04E
:1015000092838183DF91CF911F910F9108958FEF87
:101510008093E103F7CF789484B5826084BD84B56D
:10152000816084BD85B5826085BD85B5816085BDDE
:1015300080916E00816080936E0010928100809196
:10154000810082608093810080918100816080931E
:101550008100809180008160809380008091B10043
:1015600084608093B1008091B00081608093B0006E
:1015700080919100826080939100809191008160C0
:101580008093910080919000816080939000809181
:10159000A10082608093A1008091A100816080936E
:1015A000A1008091A00081608093A0008091210122
:1015B00082608093210180912101816080932101CB
:1015C0008091200181608093200180917A00846065
:1015D00080937A0080917A00826080937A00809173
:1015E0007A00816080937A0080917A00806880938D
:1015F0007A001092C10062E085E00E94A30260E0E0
:1016000086E00E94A30260E087E00E94A30262E0FD
:1016100082E00E94A30260E083E00E94A30260E0F7
:1016200084E00E94A30261E085E30E94A30261E0DE
:1016300083E30E94A30261E081E30E94A30261E0D0
:101640008FE20E94A30261E08DE20E94A30261E0AA
:101650008BE20E94A30261E089E20E94A3028091D2
:10166000E103803308F052C061E087E10E94A302E9
:101670008091E103282F30E0F901EE0FFF1FE20F08
:10168000F31FE05BFC4F9081907C976190831092F8
:10169000E2031092E3032CE0622F0E945E0D829F12
:1016A000B001112430E020E0AB01420F531FFA01DA
:1016B000EE0FFF1FE40FF51FE05BFC4F908196FDDE
:1016C00017C02F5F3F4F2C30310571F7813009F083
:1016D00024C11092800082E08093810010928500E6
:1016E00010928400B19A80916F00826080936F00A5
:1016F000E091E1038E2F90E0FC01EE0FFF1FE80F59
:10170000F91FE05BFC4F80818064808360E089E0AA
:101710000E94A30260E088E00E94A30287E00E948A
:101720004C0290939D0280939C0284E00E944C02A4
:10173000909399028093980261E08FE20E94750273
:101740002091040430910504032E000C440B550B2A
:10175000C12C67E8D62E63E9E62E63E0F62EC701BA
:10176000B6010E94FB0C7FE0872E912CA12CB12C9E
:10177000CA01B901A50194010E94FB0C2093000449
:101780003093010440930204509303042091EA0330
:101790003091EB03032E000C440B550BC701B6012F
:1017A0000E94FB0CCA01B901A50194010E94FB0C27
:1017B0002093E6033093E7034093E8035093E90353
:1017C000E091C302F091C40282E08083E091BF0205
:1017D000F091C0021082E091C102F091C2028FEC40
:1017E00080831092CB02E091C702F091C80286E09C
:1017F0008083E091C502F091C60280818061808380
:10180000E091C502F091C602808188608083E091FA
:10181000C502F091C602808180688083E091C50294
:10182000F091C60280818F7D808389E00E944C0206
:101830000197C9F48091970281119BC061E08DE20C
:101840000E94750260E08FE20E94750281E0809341
:10185000970264EF71E080E090E00E9404038FE360
:1018600092E00E94A10680919702882339F188E0D6
:101870000E944C020197C9F4809196028111AEC07A
:1018800061E081E30E94750281E08093960286EA1E
:101890009FEF0E947C0183E792E00E94A10664EF23
:1018A00071E080E090E00E9404038091960261E084
:1018B000811101C060E081E30E94750245EA52E0B7
:1018C00069EA72E085E090E00E94AE0640EA52E0EC
:1018D00064EA72E082E090E00E94AE0687E0E82EC3
:1018E000F12C06E010E02CE932E04EE952E069EA22
:1018F00072E081E00E94830794E0E92EF12C03E07E
:1019000010E028E932E04AE952E064EA72E080E05F
:101910000E9483070E94390488CF823061F41092BC
:10192000900080939100109295001092940088BBD3
:1019300080937100DDCE833069F41092A00082E0C4
:101940008093A1001092A5001092A40089BB8093FF
:101950007200CECE8111CCCE1092200182E0809315
:10196000210110922501109224018ABB80937300FB
:10197000BFCE60E08DE20E94750261E08FE20E94BE
:10198000750260E08BE20E94750260E089E20E94CD
:10199000750260E085E30E94750260E083E30E94C7
:1019A000750280919602882371F08BE492E00E9488
:1019B000A1068AE590E00E947C0160E081E30E943C
:1019C0007502109296021092970264EF71E080E027
:1019D00090E00E94040386E692E043CF60E081E35A
:1019E0000E947502109296028AE590E00E947C01A6
:1019F00084E892E052CF052E97FB1EF400940E94DB
:101A0000120D57FD07D00E942D0D07FC03D04EF498
:101A10000C94120D50954095309521953F4F4F4FA6
:101A20005F4F089590958095709561957F4F8F4F8A
:101A30009F4F08950E944F0DA59F900DB49F900D4C
:101A4000A49F800D911D11240895B7FF0C941A0DC9
:101A50000E941A0D821B930B0895A1E21A2EAA1B55
:101A6000BB1BFD010DC0AA1FBB1FEE1FFF1FA2174E
:101A7000B307E407F50720F0A21BB30BE40BF50B4B
:101A8000661F771F881F991F1A9469F760957095D4
:101A9000809590959B01AC01BD01CF010895A29F57
:101AA000B001B39FC001A39F700D811D1124911D32
:101AB000B29F700D811D1124911D0895991B79E02D
:101AC00004C0991F961708F0961B881F7A95C9F7CE
:101AD0008095089597FB072E16F4009407D077FDA4
:101AE00009D00E94860D07FC05D03EF490958195A3
:101AF0009F4F0895709561957F4F0895EE0FFF1FDA
:101B0000881F8BBF0790F691E02D1994AA1BBB1B71
:101B100051E107C0AA1FBB1FA617B70710F0A61BED
:101B2000B70B881F991F5A95A9F780959095BC010E
:081B3000CD010895F894FFCFE8
:101B3800010000000000CC0336036303190494037A
:101B480072038603427574746F6E207072657373C6
:101B5800656421000D0A0078206D6F76656D656EED
:101B6800743A0079206D6F76656D656E743A00532E
:101B7800797374656D206F6E210A0052616973690B
:101B88006E672070656E20666F7220736875746F5B
:101B980066662E200A0053797374656D206F666639
:101BA800210A0050656E20696E20636F6E74616350
:101BB80074210A0050656E205261697365642E0AAB
:021BC80000001B
:00000001FF
