:100000000C9449010C947A010C947A010C947A01B5
:100010000C947A010C947A010C947A010C947A0174
:100020000C947A010C947A010C947A010C947A0164
:100030000C947A010C947A010C947A010C947A0154
:100040000C947A010C947A010C947A010C947A0144
:100050000C947A010C947A010C947A010C940F0799
:100060000C947A010C9483070C9459070C947A0130
:100070000C947A010C947A010C947A010C947A0114
:100080000C947A010C947A010C947A010C947A0104
:100090000C947A010C947A010C947A010C947A01F4
:1000A0000C947A010C947A010C947A010C947A01E4
:1000B0000C947A010C947A010C947A010C947A01D4
:1000C0000C947A010C947A010C947A010C947A01C4
:1000D0000C947A010C947A010C947A010C947A01B4
:1000E0000C947A010C94B0040C94EE040C94B003BC
:1000F0000C942B030C9486040C949E040C94A40181
:100100000C949A010C94B9070C941D030C94B5013E
:100110000C94DB010C94DA010C94C7010C94CD0112
:100120000C94BF010C94D1010C9463030C94E8046B
:100130000C94DF010C94A0010C9409030C94AC0105
:100140000C94AF010C9490040C94A8010C94C3017E
:100150000C94CD020C94B9010C94DA040C94FA02BC
:100160000C94D5010C94CA040C94C8040C94D004CB
:1001700000002100240027002A002D003000330059
:1001800001010000040107010A010000220025000E
:1001900028002B002E003100340002010000050170
:1001A00008010B01000020002300260029002C007C
:1001B0002F003200000100000301060109010505BE
:1001C0000505070508080808020202020A0A0808CD
:1001D00004040404010101010101010103030303FB
:1001E00003030303040707070C0C0C0C0C0C0C0C8A
:1001F0000202020206060606060606060B0B0B0B9B
:100200000B0B0B0B010210202008081020401020BF
:1002100040800201020108040201010204081020CA
:1002200040808040201008040201800402018040C8
:100230002010080402010804020101020408102031
:100240004080010204081020408000000A0B0209CF
:100250000C0D0E0807030401000000000000000060
:10026000000000000000000000000000000000008E
:10027000000000000000121110000000000000004B
:10028000000000000000000000000000000000006E
:10029000B90711241FBECFEFD1E2DEBFCDBF00E012
:1002A0000CBF12E0A0E0B2E0ECEDF4E100E00BBF27
:1002B00002C007900D92A835B107D9F723E0A8E551
:1002C000B2E001C01D92A534B207E1F711E0C9E424
:1002D000D1E000E006C021970109802FFE010E94B5
:1002E000500AC834D10780E00807A9F70E945808CF
:1002F0000C946C0A0C9400008150823108F05AC0B2
:10030000E82FF0E08827E857FE4F8F4F0C94500AF3
:10031000A801AC019A01A001A401DA01AF01B50165
:10032000B901BF01C301C701CD01D101DA01D50176
:10033000DB01DF01809180008F778093800008953A
:10034000809180008F7DF9CF80918000877FF5CFED
:1003500084B58F7784BD089584B58F7DFBCF809160
:10036000B0008F778093B00008958091B0008F7DAA
:10037000F9CF809190008F778093900008958091BD
:1003800090008F7DF9CF80919000877FF5CF80918D
:10039000A0008F778093A00008958091A0008F7DAA
:1003A000F9CF8091A000877FF5CF809120018F77D2
:1003B000809320010895809120018F7DF9CF809155
:1003C0002001877FF5CFCF93DF93282F30E0F9010D
:1003D000E65BFD4F8491F901EC5FFD4FD491F9018B
:1003E000E254FE4FC491CC23A1F081110E947C0104
:1003F000EC2FF0E0EE0FFF1FEC55FE4FA591B491EE
:10040000EC91ED2381E090E009F480E0DF91CF9161
:10041000089580E090E0FACF1F93CF93DF93282FC9
:1004200030E0F901E65BFD4F8491F901EC5FFD4F8F
:10043000D491F901E254FE4FC491CC23A9F0162FB8
:1004400081110E947C01EC2FF0E0EE0FFF1FE657B8
:10045000FE4FA591B4918FB7F894EC91111108C09B
:10046000D095DE23DC938FBFDF91CF911F9108954C
:10047000DE2BF8CFCF93DF9390E0FC01EC5FFD4FD4
:10048000249182549E4FFC0184918823C9F090E00E
:10049000880F991FFC01E059FE4FA591B491FC0112
:1004A000E657FE4FC591D49161110DC09FB7F894E6
:1004B0008C91209582238C938881282328839FBF49
:1004C000DF91CF910895623051F49FB7F8943C9139
:1004D000822F809583238C93E8812E2BEFCF8FB7CB
:1004E000F894EC912E2B2C938FBFEACF3FB7F89462
:1004F0008091700290917102A0917202B09173028A
:1005000026B5A89B05C02F3F19F00196A11DB11D6E
:100510003FBFBA2FA92F982F8827BC01CD01620FAA
:10052000711D811D911D42E0660F771F881F991F65
:100530004A95D1F708958F929F92AF92BF92CF9232
:10054000DF92EF92FF924B015C010E9476026B01F9
:100550007C010E9476026C197D098E099F09683E14
:10056000734081059105A8F321E0821A9108A10842
:10057000B10888EEC80E83E0D81EE11CF11C81147E
:100580009104A104B10429F7FF90EF90DF90CF9080
:10059000BF90AF909F908F900895AF92BF92CF92EF
:1005A000DF92EF92FF920F931F93CF93DF936C0133
:1005B0007B018B01040F151FEB015E01AE18BF0814
:1005C000C017D10759F06991D601ED91FC910190C6
:1005D000F081E02DC6011995892B79F7C501DF91CE
:1005E000CF911F910F91FF90EF90DF90CF90BF9030
:1005F000AF900895FC01538D448D252F30E0842F5A
:1006000090E0821B930B541710F0CF96089501973A
:100610000895FC01918D828D981761F0A28DAE0F27
:10062000BF2FB11D5D968C91928D9F5F9F73928FAE
:1006300090E008958FEF9FEF0895FC01918D828DDA
:10064000981731F0828DE80FF11D858D90E00895A7
:100650008FEF9FEF0895FC01918D228D892F90E0FF
:10066000805C9F4F821B91098F739927089584E7BF
:1006700092E00E942B0321E0892B09F420E0822FD5
:100680000895FC01A48DA80FB92FB11DA35ABF4F27
:100690002C91848D90E001968F739927848FA68981
:1006A000B7892C93A089B1898C91837080648C93D5
:1006B000938D848D981306C00288F389E02D808184
:1006C0008F7D80830895EF92FF920F931F93CF93B6
:1006D000DF93EC0181E0888F9B8D8C8D98131AC07D
:1006E000E889F989808185FF15C09FB7F894EE8964
:1006F000FF896083E889F9898081837080648083C1
:100700009FBF81E090E0DF91CF911F910F91FF900B
:10071000EF900895F62E0B8D10E00F5F1F4F0F73B3
:100720001127E02E8C8D8E110CC00FB607FCFACF6E
:10073000E889F989808185FFF5CFCE010E944103C8
:10074000F1CFEB8DEC0FFD2FF11DE35AFF4FF0823F
:100750009FB7F8940B8FEA89FB8980818062CFCFA5
:10076000CF93DF93EC01888D8823B9F0AA89BB89E8
:10077000E889F9898C9185FD03C0808186FD0DC0D3
:100780000FB607FCF7CF8C9185FFF2CF808185FFF4
:10079000EDCFCE010E944103E9CFDF91CF910895C3
:1007A00080E090E0892B29F00E94370381110E949C
:1007B000000080E090E0892B49F080E090E0892BF8
:1007C00029F00E94000081110E94000080E090E06A
:1007D000892B49F080E090E0892B29F00E940000ED
:1007E00081110E94000080E090E0892B49F080E0B8
:1007F00090E0892B29F00E94000081110C940000E8
:1008000008950F931F93CF93DF93EC018B0188859D
:100810009985029751F46130710509F43AC06CF57D
:1008200060E00115110509F435C0888599850497A4
:1008300051F40130110509F455C00CF035C0011513
:10084000110509F43EC088859985059709F0C8C04F
:100850000A30110508F0C4C0F8018827ED5CFB4F91
:100860008F4F0C94500A860490049E04B004C80470
:10087000CA04D004DA04E804EE046230710591F091
:1008800060E00330110589F68C850E940C0260E05F
:1008900005C061E08C850E940C0261E08E850E949B
:1008A0000C02C3CF61E0F0CF0230110509F1033033
:1008B000110509F0C8CF61E08C850E940C0260E050
:1008C0001CC061E08C850E940C0260E08E850E9455
:1008D0000C0261E088890E940C0260E08A890E9413
:1008E0000C02B1CF60E08C850E940C0261E0EECF7B
:1008F00060E08C850E940C0261E08E850E940C02F3
:1009000060E088890E940C0261E0E8CF60E08C859D
:100910000E940C0261E08E850E940C0261E009C019
:1009200060E08C850E940C0261E08E850E940C02C2
:1009300060E088890E940C0260E00DC060E08C8558
:100940000E940C0261E08E850E940C0260E08889A2
:100950000E940C0261E08A890E940C0261E011C0D1
:1009600060E08C850E940C0261E08E850E940C0282
:1009700060E088890E940C0261E08A890E940C0272
:1009800060E08C89DF91CF911F910F910C940C0244
:1009900061E0E7CF61E08C850E940C0260E0E5CF6A
:1009A00061E08C850E940C0260E08E850E940C0242
:1009B00061E0DFCF61E08C850E940C0260E08E85F3
:1009C0000E940C0261E088890E940C0260E0D5CF91
:1009D00061E08C850E940C0260E09DCF60E0F9CF61
:1009E000DF91CF911F910F9108954F925F926F9277
:1009F0007F928F929F92AF92BF92CF92DF92EF92AF
:100A0000FF920F931F93CF93DF93EC018B0177FF3E
:100A100004C000271127061B170B161617060CF02B
:100A20004AC081E090E09983888384E0E82EF12C2D
:100A30009AE0C92ED12C0115110509F44EC00E946F
:100A400076028E889F88A88CB98C2B013C014818AF
:100A500059086A087B088A809B80AC80BD80481456
:100A600059046A047B0438F36E8B7F8B888F998FCF
:100A70008A859B85288139812130310511F50196C0
:100A80009B878A872E813F818217930711F41B86EB
:100A90001A86015011098A859B8528853985B601FA
:100AA0002530310509F0B7010E94FB09BC01CE01D8
:100AB0000E940104C0CF672B09F4B7CF19821882B6
:100AC000B4CF892B21F48E819F819B878A878A8569
:100AD0009B8501979B878A87DCCFDF91CF911F9100
:100AE0000F91FF90EF90DF90CF90BF90AF909F90CD
:100AF0008F907F906F905F904F900895FC010190D0
:100B00000020E9F73197AF01481B590BBC0184E77E
:100B100092E00C94CD020F931F93CF93DF93EB01E0
:100B20008A010E94E301892BB9F52FB7F8948091CF
:100B30006C0290916D02A0916E02B0916F022FBF76
:100B4000F8014081518162817381841B950BA60B52
:100B5000B70BC397A105B10548F184E192E00E946B
:100B60007E0584E292E00E947E0581E09FB7F894C2
:100B700040916C0250916D0260916E0270916F0213
:100B80009FBFF8014083518362837383882321F0E0
:100B90008881882369F0188265E070E080E090E049
:100BA000DF91CF911F910F910C949B0280E0DECFDB
:100BB00081E08883F1CF8F929F92AF92BF92CF92C4
:100BC000DF92EF92FF920F931F93CF93DF93CDB7F6
:100BD000DEB7A1970FB6F894DEBF0FBECDBF6C0194
:100BE000990FEE08FF08F7FE47C06DE284E792E038
:100BF0000E9463038C0122273327A9012C193D0988
:100C00004E095F0919A2CE0181967C019AE0892ED6
:100C1000912CA12CB12CCA01B901A50194010E940B
:100C20000F0A605DF70162937F01211531054105CF
:100C3000510589F790E080E0309719F0CF010E94CC
:100C40007E05080F191F84E292E00E947E05800F46
:100C5000911FA1960FB6F894DEBF0FBECDBFDF91F6
:100C6000CF911F910F91FF90EF90DF90CF90BF90A9
:100C7000AF909F908F900895A701960119A28E01C1
:100C80000F5D1F4F8AE0C82ED12CE12CF12CCA0138
:100C9000B901A70196010E940F0A605DF8016293F5
:100CA0008F01211531054105510589F7309729F04C
:100CB000CF010E947E058C01C6CF10E000E0C3CFBB
:100CC0008F929F92AF92BF92CF92DF92EF920F934B
:100CD0001F93CF93DF93182F4B016A01590161E0F5
:100CE00070E080E090E00E949B02802F0E94E30170
:100CF000EC0180915802882309F444C0F4018081FA
:100D0000F501208131812C173D0709F466C0C130FF
:100D1000D10509F062C0811174C08E2D0E94E301DB
:100D2000F601208131810197E1F12F5F3F4F31833F
:100D30002083D0930102C09300021123E9F187E2DE
:100D400092E00E947E05809100029091010218ECD1
:100D50009C01129FC001139F900D11240E94DB057E
:100D60008091000290910102189FB001199F700DAF
:100D700011248BE293E00E94F504F60180819181B9
:100D80000E94DB05F501D183C083DF91CF911F91D4
:100D90000F91EF90DF90CF90BF90AF909F908F908A
:100DA000089521503109318320838FEF9FEF909375
:100DB000010280930002C1CF83E392E00E947E058E
:100DC000809100029091010228EC289FB001299F98
:100DD000700D112481E193E0CECF811112C0112357
:100DE00039F060E08BE20E940C0261E089E206C00B
:100DF00061E083E30E940C0260E085E30E940C0244
:100E0000C1CF61E0112329F08BE20E940C0260E067
:100E1000EDCF85E30E940C0260E083E3EFCF1F92E9
:100E20000F920FB60F9211242F933F938F939F939E
:100E3000AF93BF9380916C0290916D02A0916E026E
:100E4000B0916F0230916B0223E0230F2D3758F5DC
:100E50000196A11DB11D20936B0280936C029093AB
:100E60006D02A0936E02B0936F0280917002909118
:100E70007102A0917202B09173020196A11DB11D81
:100E80008093700290937102A0937202B0937302E8
:100E9000BF91AF919F918F913F912F910F900FBE76
:100EA0000F901F90189526E8230F0296A11DB11DE3
:100EB000D2CF1F920F920FB60F9211240BB60F9242
:100EC0002F933F934F935F936F937F938F939F9352
:100ED000AF93BF93EF93FF9384E792E00E944103A7
:100EE000FF91EF91BF91AF919F918F917F916F9102
:100EF0005F914F913F912F910F900BBE0F900FBEBE
:100F00000F901F9018951F920F920FB60F921124F9
:100F10000BB60F922F938F939F93EF93FF93E091D4
:100F20008402F09185028081E0918A02F0918B0227
:100F300082FD1DC0908180918D028F5F8F73209103
:100F40008E02821741F0E0918D02F0E0EC58FD4FE7
:100F5000958F80938D02FF91EF919F918F912F91AB
:100F60000F900BBE0F900FBE0F901F9018958081B1
:100F7000F2CFEF92FF920F931F93CF93DF93E4E7AB
:100F8000F2E01382128288EE93E0A0E0B0E0848366
:100F90009583A683B78386E092E09183808385EC76
:100FA00090E09587848784EC90E09787868780EC33
:100FB00090E0918B808B81EC90E0938B828B82EC24
:100FC00090E0958B848B86EC90E0978B868B118ECE
:100FD000128E138E148ECBE2D3E01B861A861982F2
:100FE00018821E8A1F8A188E198E84E3E82E88E0E4
:100FF000F82EFF82EE828FE190E09D878C8781E260
:1010000090E09F878E8783E290E0998B888B85E2C2
:1010100090E09B8B8A8B61E08FE10E943A0261E055
:101020008E850E943A0261E088890E943A0261E05E
:101030008A890E943A021D8A1C8A04E010E01987FE
:101040000887C1E1D3E01B861A86198218821E8A9E
:101050001F8A188E198EFF82EE828EE190E09D87A6
:101060008C8780E290E09F878E8782E290E0998B68
:10107000888B84E290E09B8B8A8B61E08EE10E94FA
:101080003A0261E08E850E943A0261E088890E94FE
:101090003A0261E08A890E943A021D8A1C8A1987F5
:1010A0000887DF91CF911F910F91FF90EF900895E6
:1010B000789484B5826084BD84B5816084BD85B533
:1010C000826085BD85B5816085BD80916E0081603F
:1010D00080936E00109281008091810082608093E5
:1010E00081008091810081608093810080918000E7
:1010F0008160809380008091B10084608093B10012
:101100008091B00081608093B000809191008260F6
:1011100080939100809191008160809391008091F3
:1011200090008160809390008091A1008260809304
:10113000A1008091A10081608093A1008091A00016
:1011400081608093A00080912101826080932101C1
:101150008091210181608093210180912001816033
:101160008093200180917A00846080937A0080913E
:101170007A00826080937A0080917A008160809307
:101180007A0080917A00806880937A001092C10082
:1011900062E085E00E943A0260E086E00E943A0246
:1011A00060E087E00E943A0262E082E00E943A0238
:1011B00060E083E00E943A0260E084E00E943A022C
:1011C00061E085E30E943A0261E083E30E943A0213
:1011D00061E081E30E943A0261E08FE20E943A02FC
:1011E00061E08DE20E943A0261E08BE20E943A02E5
:1011F00061E089E20E943A0260E089E00E943A02DE
:1012000060E088E00E943A0287E00E94E301909348
:101210005E0280935D0284E00E94E30190935A0293
:101220008093590261E08FE20E940C022091310309
:1012300030913203032E000C440B550BC12C67E890
:10124000D62E63E9E62E63E0F62EC701B6010E94B2
:10125000310A7FE0872E912CA12CB12CCA01B90153
:10126000A50194010E94310A20932D0330932E038F
:1012700040932F03509330032091170330911803AC
:10128000032E000C440B550BC701B6010E94310A16
:10129000CA01B901A50194010E94310A20931303E8
:1012A000309314034093150350931603E091840286
:1012B000F091850282E08083E0918002F0918102CA
:1012C0001082E0918202F09183028FEC8083109271
:1012D0008C02E0918802F091890286E08083E0919F
:1012E0008602F0918702808180618083E09186028E
:1012F000F0918702808188608083E0918602F0917E
:101300008702808180688083E0918602F091870265
:1013100080818F7D808389E00E94E3010197C9F479
:1013200080915802811144C061E08DE20E940C025C
:1013300060E08FE20E940C0281E08093580264EF2B
:1013400071E080E090E00E949B028FE392E00E94B7
:101350007E0546E652E06AE672E085E090E00E9493
:101360008B0541E652E065E672E082E090E00E9483
:101370008B0587E0E82EF12C06E010E02DE532E049
:101380004FE552E06AE672E081E00E94600694E078
:10139000E92EF12C03E010E029E532E04BE552E0C4
:1013A00065E672E080E00E9460060E94D003B3CF41
:1013B00060E08DE20E940C0261E08FE20E940C026C
:1013C00060E08BE20E940C0260E089E20E940C0265
:1013D00060E085E30E940C0260E083E30E940C025F
:1013E0001092580264EF71E080E090E00E949B024E
:1013F0008BE492E0ACCF97FB072E16F4009407D055
:1014000077FD09D00E94580A07FC05D03EF490955C
:1014100081959F4F0895709561957F4F0895A1E242
:101420001A2EAA1BBB1BFD010DC0AA1FBB1FEE1F5E
:10143000FF1FA217B307E407F50720F0A21BB30BA9
:10144000E40BF50B661F771F881F991F1A9469F725
:1014500060957095809590959B01AC01BD01CF0181
:101460000895052E97FB1EF400940E94480A57FD2C
:1014700007D00E940F0A07FC03D04EF40C94480AD0
:1014800050954095309521953F4F4F4F5F4F0895B0
:1014900090958095709561957F4F8F4F9F4F0895E0
:1014A000EE0FFF1F881F8BBF0790F691E02D199458
:1014B000AA1BBB1B51E107C0AA1FBB1FA617B7077A
:1014C00010F0A61BB70B881F991F5A95A9F7809596
:0C14D0009095BC01CD010895F894FFCF69
:1014DC000100000000006303CD02FA02B0032B03ED
:1014EC0009031D03427574746F6E207072657373FB
:1014FC00656421000D0A0078206D6F76656D656E50
:10150C00743A0079206D6F76656D656E743A005390
:10151C00797374656D206F6E210A0053797374654D
:08152C006D206F6666210A00C4
:00000001FF
